{"abi":[{"type":"constructor","inputs":[],"stateMutability":"nonpayable"},{"type":"function","name":"addContact","inputs":[{"name":"name","type":"string","internalType":"string"},{"name":"contact","type":"address","internalType":"address"}],"outputs":[],"stateMutability":"nonpayable"},{"type":"function","name":"getContactCount","inputs":[],"outputs":[{"name":"","type":"uint256","internalType":"uint256"}],"stateMutability":"view"},{"type":"function","name":"getContacts","inputs":[],"outputs":[{"name":"","type":"tuple[]","internalType":"struct ContactBook.Contact[]","components":[{"name":"name","type":"string","internalType":"string"},{"name":"contact","type":"address","internalType":"address"},{"name":"index","type":"uint256","internalType":"uint256"}]}],"stateMutability":"view"},{"type":"function","name":"removeContact","inputs":[{"name":"index","type":"uint256","internalType":"uint256"}],"outputs":[],"stateMutability":"nonpayable"}],"bytecode":{"object":"0x6080604052348015600e575f5ffd5b50335f5f6101000a81548173ffffffffffffffffffffffffffffffffffffffff021916908373ffffffffffffffffffffffffffffffffffffffff160217905550610e1f8061005b5f395ff3fe608060405234801561000f575f5ffd5b506004361061004a575f3560e01c806336d52ed71461004e578063603d57a11461006c578063708adcd514610088578063db920b77146100a4575b5f5ffd5b6100566100c2565b60405161006391906104dc565b60405180910390f35b61008660048036038101906100819190610530565b6100ce565b005b6100a2600480360381019061009d91906106f1565b610250565b005b6100ac610322565b6040516100b991906108d1565b60405180910390f35b5f600180549050905090565b6001805490508110610115576040517f08c379a000000000000000000000000000000000000000000000000000000000815260040161010c9061094b565b60405180910390fd5b60018080805490506101279190610996565b81548110610138576101376109c9565b5b905f5260205f20906003020160018281548110610158576101576109c9565b5b905f5260205f2090600302015f8201815f0190816101769190610c08565b50600182015f9054906101000a900473ffffffffffffffffffffffffffffffffffffffff16816001015f6101000a81548173ffffffffffffffffffffffffffffffffffffffff021916908373ffffffffffffffffffffffffffffffffffffffff1602179055506002820154816002015590505060018054806101fb576101fa610ced565b5b600190038181905f5260205f2090600302015f5f82015f61021c919061046c565b600182015f6101000a81549073ffffffffffffffffffffffffffffffffffffffff0219169055600282015f90555050905550565b5f60018054905090505f60405180606001604052808581526020018473ffffffffffffffffffffffffffffffffffffffff168152602001838152509050600181908060018154018082558091505060019003905f5260205f2090600302015f909190919091505f820151815f0190816102c99190610d1a565b506020820151816001015f6101000a81548173ffffffffffffffffffffffffffffffffffffffff021916908373ffffffffffffffffffffffffffffffffffffffff16021790555060408201518160020155505050505050565b60606001805480602002602001604051908101604052809291908181526020015f905b82821015610463578382905f5260205f2090600302016040518060600160405290815f8201805461037590610a23565b80601f01602080910402602001604051908101604052809291908181526020018280546103a190610a23565b80156103ec5780601f106103c3576101008083540402835291602001916103ec565b820191905f5260205f20905b8154815290600101906020018083116103cf57829003601f168201915b50505050508152602001600182015f9054906101000a900473ffffffffffffffffffffffffffffffffffffffff1673ffffffffffffffffffffffffffffffffffffffff1673ffffffffffffffffffffffffffffffffffffffff16815260200160028201548152505081526020019060010190610345565b50505050905090565b50805461047890610a23565b5f825580601f1061048957506104a6565b601f0160209004905f5260205f20908101906104a591906104a9565b5b50565b5b808211156104c0575f815f9055506001016104aa565b5090565b5f819050919050565b6104d6816104c4565b82525050565b5f6020820190506104ef5f8301846104cd565b92915050565b5f604051905090565b5f5ffd5b5f5ffd5b61050f816104c4565b8114610519575f5ffd5b50565b5f8135905061052a81610506565b92915050565b5f60208284031215610545576105446104fe565b5b5f6105528482850161051c565b91505092915050565b5f5ffd5b5f5ffd5b5f601f19601f8301169050919050565b7f4e487b71000000000000000000000000000000000000000000000000000000005f52604160045260245ffd5b6105a982610563565b810181811067ffffffffffffffff821117156105c8576105c7610573565b5b80604052505050565b5f6105da6104f5565b90506105e682826105a0565b919050565b5f67ffffffffffffffff82111561060557610604610573565b5b61060e82610563565b9050602081019050919050565b828183375f83830152505050565b5f61063b610636846105eb565b6105d1565b9050828152602081018484840111156106575761065661055f565b5b61066284828561061b565b509392505050565b5f82601f83011261067e5761067d61055b565b5b813561068e848260208601610629565b91505092915050565b5f73ffffffffffffffffffffffffffffffffffffffff82169050919050565b5f6106c082610697565b9050919050565b6106d0816106b6565b81146106da575f5ffd5b50565b5f813590506106eb816106c7565b92915050565b5f5f60408385031215610707576107066104fe565b5b5f83013567ffffffffffffffff81111561072457610723610502565b5b6107308582860161066a565b9250506020610741858286016106dd565b9150509250929050565b5f81519050919050565b5f82825260208201905092915050565b5f819050602082019050919050565b5f81519050919050565b5f82825260208201905092915050565b8281835e5f83830152505050565b5f6107a682610774565b6107b0818561077e565b93506107c081856020860161078e565b6107c981610563565b840191505092915050565b6107dd816106b6565b82525050565b6107ec816104c4565b82525050565b5f606083015f8301518482035f86015261080c828261079c565b915050602083015161082160208601826107d4565b50604083015161083460408601826107e3565b508091505092915050565b5f61084a83836107f2565b905092915050565b5f602082019050919050565b5f6108688261074b565b6108728185610755565b93508360208202850161088485610765565b805f5b858110156108bf57848403895281516108a0858261083f565b94506108ab83610852565b925060208a01995050600181019050610887565b50829750879550505050505092915050565b5f6020820190508181035f8301526108e9818461085e565b905092915050565b5f82825260208201905092915050565b7f496e646578206f7574206f6620626f756e6473000000000000000000000000005f82015250565b5f6109356013836108f1565b915061094082610901565b602082019050919050565b5f6020820190508181035f83015261096281610929565b9050919050565b7f4e487b71000000000000000000000000000000000000000000000000000000005f52601160045260245ffd5b5f6109a0826104c4565b91506109ab836104c4565b92508282039050818111156109c3576109c2610969565b5b92915050565b7f4e487b71000000000000000000000000000000000000000000000000000000005f52603260045260245ffd5b7f4e487b71000000000000000000000000000000000000000000000000000000005f52602260045260245ffd5b5f6002820490506001821680610a3a57607f821691505b602082108103610a4d57610a4c6109f6565b5b50919050565b5f81549050610a6181610a23565b9050919050565b5f819050815f5260205f209050919050565b5f6020601f8301049050919050565b5f82821b905092915050565b5f60088302610ac47fffffffffffffffffffffffffffffffffffffffffffffffffffffffffffffffff82610a89565b610ace8683610a89565b95508019841693508086168417925050509392505050565b5f819050919050565b5f610b09610b04610aff846104c4565b610ae6565b6104c4565b9050919050565b5f819050919050565b610b2283610aef565b610b36610b2e82610b10565b848454610a95565b825550505050565b5f5f905090565b610b4d610b3e565b610b58818484610b19565b505050565b5b81811015610b7b57610b705f82610b45565b600181019050610b5e565b5050565b601f821115610bc057610b9181610a68565b610b9a84610a7a565b81016020851015610ba9578190505b610bbd610bb585610a7a565b830182610b5d565b50505b505050565b5f82821c905092915050565b5f610be05f1984600802610bc5565b1980831691505092915050565b5f610bf88383610bd1565b9150826002028217905092915050565b818103610c16575050610ceb565b610c1f82610a53565b67ffffffffffffffff811115610c3857610c37610573565b5b610c428254610a23565b610c4d828285610b7f565b5f601f831160018114610c7a575f8415610c68578287015490505b610c728582610bed565b865550610ce4565b601f198416610c8887610a68565b9650610c9386610a68565b5f5b82811015610cba57848901548255600182019150600185019450602081019050610c95565b86831015610cd75784890154610cd3601f891682610bd1565b8355505b6001600288020188555050505b5050505050505b565b7f4e487b71000000000000000000000000000000000000000000000000000000005f52603160045260245ffd5b610d2382610774565b67ffffffffffffffff811115610d3c57610d3b610573565b5b610d468254610a23565b610d51828285610b7f565b5f60209050601f831160018114610d82575f8415610d70578287015190505b610d7a8582610bed565b865550610de1565b601f198416610d9086610a68565b5f5b82811015610db757848901518255600182019150602085019450602081019050610d92565b86831015610dd45784890151610dd0601f891682610bd1565b8355505b6001600288020188555050505b50505050505056fea264697066735822122066c1a58f4347540353e854246f92878662b40558fc228a2aea335104b24a03f864736f6c634300081d0033","linkReferences":{}},"methodIdentifiers":{"addContact(string,address)":"708adcd5","getContactCount()":"36d52ed7","getContacts()":"db920b77","removeContact(uint256)":"603d57a1"},"id":16}